:020000040000FA
:02000000BA291B
:040002000034003492
:0200080053287B
:100040001C0000001D0000001E0000001F0000003A
:1000800020008B130B1221000030990021009513E2
:1000900023008E0123008D0123008C010800200025
:1000A0000B178B1708006921B3200900562823007D
:1000B000003092001513203091001514000000004C
:1000C0001308F000213091001514000000001308FF
:1000D000F100223091001514000000001308F20016
:1000E000233091001514000000001308F3002430A1
:1000F00091001514000000001308F4002530910051
:100100001514000000001308F500263091001514A6
:10011000000000001308F6002730910015140000BD
:1001200000001308F7000800220097179715171111
:10013000971017102200911391121112111591109E
:100140001110921712139216121212119214141007
:1001500023000E1521000E1322000E13220091170A
:100160002100921608002000921E08009212220020
:100170000E170E139D21080023009F101F109F11C2
:100180001E159C0104309B001D131D169D17200099
:100190000030A10021000E1222000E1208002000E3
:1001A000911E512920002108003A031DE328230055
:1001B0001D1DE12820000130A10022000E160E12A4
:1001C00051291908512920002108013A031DFF284F
:1001D00023001D1DED281908512919080319F428B9
:1001E00020000030A10051292000A201A30102300B
:1001F000A10022000E160E120E160E12512920001A
:100200002108023A031D4D2923001D194929190807
:100210002000A40022087006031D1529230871067A
:10022000031D15292408FF3AA50022087206031DA4
:10023000202923087306031D20292408FF3AA6005D
:1002400022087406031D2B2923087506031D2B297C
:100250002408FF3AA70022087606031D3629230842
:100260007706031D36292408FF3AA8002000A20FB4
:100270003A29A30A2308023A031D51290030A1009C
:1002800022000E160E120E160E120E160E1264001C
:10029000512920000030A100512922000E160E1213
:1002A0004D290800200018179813181518129812D5
:1002B00020009913A901FD309700EF30960011102E
:1002C000210011142000181421008E1322008E1317
:1002D00008002000111C8229200018102000EF3097
:1002E0009600FD3097002000111020001814220005
:1002F0008E178E1397212000A90A031D8129A903B7
:100300008229A121080020001810EF309600FD304E
:10031000970020001110200018142000A9010800E7
:1003200021008E128E110C118E10972108002200D0
:100330008E128E110C118E10080083219721A1219D
:1003400008002000290FA52908002508031D2906FB
:1003500003198E162608031D290603198E15270872
:10036000031D290603190C152808031D2906031966
:100370008E140800402057205221BC209420902148
:060380004F20CF20C1292F
:020000040001F9
:02000E00FA00F6
:020010000308E3
:00000001FF
